:10000000C8090020090100000501000005010000E9
:1000100000000000000000000000000000000000E0
:1000200000000000000000000000000005010000CA
:10003000000000000000000005010000190B000096
:100040000501000005010000050100000501000098
:10005000A1030000050100000501000005010000EA
:10006000050100000501000005010000000000007E
:10007000000000001107000005010000050100005C
:100080006D040000050100000501000000000000F3
:10009000000000000501000005010000050100004E
:1000A0000501000010B5064C2378002B07D1054B45
:1000B000002B02D0044800E000BF0123237010BDD4
:1000C000680000200000000060270000084B10B509
:1000D000002B03D00749084800E000BF0748036829
:1000E000002B00D110BD064B002BFBD09847F9E741
:1000F000000000006C000020602700006027000066
:1001000000000000FEE700001148124970B5884267
:1001100004D00023104CCA18A24213D300210F4B65
:100120000F4A934212D3FF210E4B0F4A8B43936029
:1001300080230E4A51680B43536002F0A3F801F08C
:100140001DF8FEE7C55804331560E4E702C3E8E78D
:1001500060270000000000206800002068000020E8
:10016000C80500200000000000ED00E00040004154
:10017000014A024B1A60704740420F000000002005
:1001800010B500F069FC00F081FC00F09DF900F072
:1001900045F800F0CFFF00F05DFE002000F024FFE6
:1001A000084C094A23785021D05C00F03DFF01E063
:1001B00000F00AFF00F062FF0128F9D000F098FC7F
:1001C000606010BD84000020A8230000F0B5C64682
:1001D0000F4B0027984600B50E4D0F4E00F0F4FE71
:1001E00000F086FC6B680400C31AB342F6D92B7882
:1001F0000133DBB22B70032B06D84246D05C502172
:1002000000F012FF6C60E9E72F700520F7E7C046A9
:10021000A8230000840000201F4E000010B572B615
:100220008021544B09021A680F200A431A60596151
:100230004F22002199541A684F490A401A608022BF
:100240003C2192045A615A5C82435A5459223539EE
:10025000995462B6494A393193690B439361484ACC
:10026000484B53805378DB09FCD10121464A13786F
:100270000B4313701378DB07FCD45378DB09F9D1F7
:10028000B023D1691B040B43D3613F4A5378DB0988
:10029000FCD13E4B136180239B01D3603A4A5378D3
:1002A000DB09FCD1022113780B431370364A5378D3
:1002B000DB09FCD11021C120FF24354A8133FF33F3
:1002C000D15080001358A3433F3C23431350802355
:1002D00011602A4A1B01116A0B431362284A2D4BF5
:1002E00053805378DB09FCD1A0232B4ADB00138019
:1002F000D37BDB09FCD1042153790B4353711023C9
:1003000001215383F133FF331383537B0B43537327
:10031000214AD37BDB09FCD1022113880B431380D4
:100320001D4AD37BDB09FCD18021C420FF24184A5D
:1003300081334902FF33D15080001358A3433F3C1F
:1003400023431350802311600C4ADB00116A0B43D6
:100350001362A023114ADB001380D37BDB09FCD19D
:10036000022113880B4313800C4AD37BDB09FCD199
:1003700010BDC04600440041FFFFFFFD00040040E7
:10038000000C00400340000000180040FFFF000088
:1003900000E100E014400000002C00420028004270
:1003A000802310B5294A9B0111690B431361284B27
:1003B000284A1B6A9B0108D5274B5380D37BDB0956
:1003C000FCD1128A254B1A8210BD234B5380D37B5C
:1003D000DB09FCD1214C138A228A9B1A9BB21A009A
:1003E000C23AFF3A7E2A0ED91D4A9A187E2A11D99E
:1003F0001C4A9A187E2A17D8237E202B1ED0002351
:1004000023766361E0E763695B086361237E013300
:100410002376D9E763695A0880231B061343636177
:10042000237E01332376CFE70F4A944663447E2B25
:10043000E5D8A368002BE2D09847E0E763696360E2
:10044000E368002BDBD060689847D8E700180040CD
:1004500000440041002800421080FFFF8C00002073
:100460003FFCFFFF3FFAFFFF3FF8FFFF0121024A79
:10047000937B0B4393737047002C0042F0B5C64644
:100480000F4B104F9846431CFF333E0000249C4600
:1004900000B54C3662463B00002511780132A1427E
:1004A00001DD19680D430433B342F6D14246A3007F
:1004B000AA430134C250402CECD104BC9046F0BD9C
:1004C000FF0FCF01AC2300008A2210B5234C92000D
:1004D0000021200001F003FF2000FFF7CFFF204B99
:1004E00020491A680A431A60996180231E4A5B00FA
:1004F000116A0B4313621D4A1D4B53805378DB096D
:10050000FCD1C8231B4A9B001380D37BDB09FCD1A1
:100510007823FF331383174AD37BDB09FCD10121F6
:10052000537B0B435373134AD37BDB09FCD1C324A6
:10053000114BA4001959114808408021C9010143F9
:100540001951802189011960022113880B431380FE
:10055000084AD37BDB09FCD110BDC046A8000020AF
:1005600000440041FF0FCF0100040040000C004098
:10057000134000000020004200E100E0FF00FFFF08
:100580000200402900DD402128230748C35C0120E8
:1005900058408A235B005843044B181880180130D8
:1005A000FF3001707047C046A8020020A80000205C
:1005B00028238A2070B5194C4000E65C273B5E403A
:1005C0007043174D2818FFF759FF2C23E35C5B0796
:1005D00004D12C210722635C1A42FCD02C21072273
:1005E000635C1A42FCD12823E654E25CE15C273BC1
:1005F0005A401433FF335A434B4301320133FF3225
:10060000FF33AA18EB1813CB13C211001A680A6043
:100610009A888A809B798B7170BDC046A8020020A1
:10062000A8000020F8B54746CE4630234C252820A8
:10063000304C80B52200304FF95C304B4E009B1996
:100640002F4E385C5D5B36692E4BC0B225831E4051
:10065000D37BDB09FCD1002931D18A2252004243ED
:10066000294D274B5159AC18314319616168314309
:100670001961C046C046C0460C32AD187C22A16844
:10068000994631431961214B90461C0000205C348F
:10069000984400E001CC00F017FA4A4608CD3343F5
:1006A00013614445F6D130230C22FA540121114A3A
:1006B000937B0B4393730CBC90469946F8BD0201A3
:1006C00012189200121852180F4892001058013157
:1006D0000B4A0643C9B216613F2907DD2C213020A1
:1006E0007A5C3B540132D3B27B54DFE73023F954B8
:1006F000DCE7C04600200042A8020020AC23000036
:100700000044004100F030FEA80000202C2400002E
:1007100010B5FFF787FF10BD0B6803607047C04638
:100720000B6812689B1A03607047C04670B5126868
:100730000C681314251412042404240C120C110048
:10074000260069435E43624389190C140904891821
:10075000914292416B4352421B199B18DA17DC13EA
:10076000A2420CD1074C0C191219914289414942FD
:100770005B1A1B04120C13430133036070BD80230A
:100780001B06FAE70080FFFF70B516680D68002EA3
:1007900035D0EA17AB185340F217B11851408022F8
:1007A00052028B4205D9490052008B42FBD8002AE5
:1007B00025D00024002907DA16E08B4201D3144328
:1007C0005B1A5B00520801D0002BF6D100228B424D
:1007D0005241A418754001D4046070BD80231B06EB
:1007E0009C42F9D06442F7E78B4205D2490852088F
:1007F000ECD0002BE1D1EDE75B1A1400F6E7802482
:100800002406E9E700680A680123904200DB002320
:10081000D8B270470B6812689B1803607047C046D7
:1008200010B504004C22002101F059FD200010BD3C
:10083000F8B507000E004C2200213D0001F04FFDED
:100840003C004C3520003100043400F07BFAAC420F
:10085000F8D13800F8BDC046F0B5C64600B50D0069
:1008600082B04C220021804601F039FD6B46DE1C2F
:1008700000233370AB68002B22D0EB6832002900D4
:1008800001A8984701A9404600F05CFA43460124BC
:100890001F1DAB683470002B12D03200290001A854
:1008A000EB6801349847E4B2380001A900F04AFA35
:1008B0000437132CEDD1404602B004BC9046F0BD85
:1008C00000F096FE7047C04670B505000024280071
:1008D00000F05AFA010020000134E4B2FFF750FEA4
:1008E0000435132CF3D170BD70B51600040086B02A
:1008F0000D0004A81100FFF70FFF04A905A800F0E0
:100900001BFA05A901A800F021FA310005A8FFF79C
:1009100003FF260005A902A800F00EFA4C362100BC
:1009200001AA03A800F050FA290002AA04A800F0C6
:100930004BFA04AA03A905A800F02AFA200005A989
:10094000043400F0FFF90435B442E8D106B070BDBC
:100950001E213A4A53688B431C390B435360384A73
:10096000063193690B4301219361364A13780B4397
:1009700013701378DB0702D55378DB09F9D1802196
:10098000314A136A8B4313622E4B304A9A60304AC5
:100990005A605A78D209FCD18622D2015A80294A5B
:1009A0005378DB09FCD18021274A938C8B439384B5
:1009B000D368DB06FCD5C021D36A09011B0C1B04DC
:1009C0000B438021D362D36AC9049B019B090B436B
:1009D000D362D36A1F49194080235B020B43D36261
:1009E000194AD368DB06FCD58123918C9B000B430D
:1009F0009384154AD368DB06FCD5802193680B43AA
:100A00009360936840390B439360936830390B438C
:100A100002219360938C0B4393840B4AD368DB06CB
:100A2000FCD5094A93681B06FCD593685B06F9D58B
:100A3000054A9368DB06FCD57047C046004000417C
:100A400000040040000C004000080040034000008B
:100A500003060100FFFF00FC10B5094800F034F860
:100A6000FFF776FF0023074A93605378DB09FCD138
:100A7000054B5360034A5378DB09FCD110BDC046D7
:100A8000204E0000000C004000070300C0200B496E
:100A90000B4B0C4A4B60136A00061B021B0A0343F4
:100AA000136200238B6007330B608021136A0906F1
:100AB0001B021B0A0B4313627047C04610E000E0A4
:100AC0007FBB000000ED00E080B584B000AF78602F
:100AD0000023FB60FA687B689A4204D2C046FB6838
:100AE0000133FB60F6E7C046BD4604B080BDC0469A
:100AF000014B986E7047C0460C03002000B583B0D0
:100B0000009001916A460349684600F00DF880B2F2
:100B100003B000BD0C030020024A936E01339366BC
:100B20007047C0460C030020F0B557464E46DE46DF
:100B300045461300E0B591461B68526885B0D31A4C
:100B40000C0001931900574B8246994246D80D007C
:100B500001352900544800F083FE03006B439B4697
:100B600080235B049846012382469C460021676EE1
:100B70000A235B42FB1813D4BD009B00651918596A
:100B80002E68236E9A1982420DD8801BC01A013735
:100B900021662860172F10D96166834510D8002779
:100BA0003B000E33E8E74246D21A6346921B101808
:100BB000013723662860172FEED867668345D7D99B
:100BC000514600F04DFE03004A461068181805B063
:100BD0003CBC90469946A246AB46F0BD324B99428A
:100BE0003BD00B0E984600239B465B460293434640
:100BF000210002AA50460393FFF796FF0A23616E75
:100C00005B420006CB1826D48D009B0065191F5946
:100C1000226E2B689E18B74210D3FB1A9B1A5A46B5
:100C2000013122662B60172913D95A466266019A50
:100C3000C3189A42D9D39842D7D8C5E780267604FC
:100C4000B21AD31A0122DB19013122662B6017294F
:100C5000EBD86166EBE71833D6E70A23656E5B4293
:100C6000EB181DD4AE00A6199B003268216E1859EE
:100C7000531898420AD3831A00225B1A2266013560
:100C80003360172D0AD9002262669DE780235B043A
:100C90005B1A9B1A01221B182266F0E7656693E730
:100CA0001833DFE7FEFFFF00FFFFFF00F0B54F4600
:100CB0004646D646174BC0B59A461E00602353449D
:100CC0009946154B154C9846154F2000154900F0D4
:100CD0004DFE454620004D43124900F0C1FD7843CA
:100CE000114A2B1AAC18241A854200D31C00230287
:100CF0001B0A08C64E45E8D15346DB6D5A425341A4
:100D000052461366002353661CBC90469946A24681
:100D1000F0BDC0460C0300204E9C000097D32D016F
:100D2000B32F0000A4D10000ABFFFF7F10B504007B
:100D3000FFF7F2FC200010BD10B50400FFF7ECFC3B
:100D4000200010BD0B6803607047C046802310B5BB
:100D5000040082B00A005B02694601A80093FFF715
:100D6000DFFC01A92000FFF7D7FC200002B010BD76
:100D700010B5040082B00B8801A90193FFF7CCFCE9
:100D8000200002B010BDC04600688012C0B270479B
:100D900010B5040082B001A8FFF73CFD01A92000B6
:100DA000FFF7BAFC200002B010BDC04610B5040029
:100DB00082B001A8FFF7B4FC01A92000FFF7ACFC4A
:100DC000200002B010BDC04610B5040082B001A8DA
:100DD000FFF7ACFC01A92000FFF79EFC200002B049
:100DE00010BDC04610B5040082B001A8FFF7CCFCCE
:100DF00001A92000FFF790FC200002B010BDC04602
:100E000030B5802585B002AA0400AD0203A8029582
:100E1000FFF78CFC03A901A8FFF77EFC802303A940
:100E20005B0201A80393FFF7EDFC00280CD102A997
:100E300003A801AA0295FFF773FC03A92000FFF79E
:100E40006BFC200005B030BD01A92000FFF764FC59
:100E5000F7E7C04670B50B4C0025260084B001A80A
:100E6000C4360021256000F067F901A9300000F0C8
:100E70003BF9211D300000F03FF9034B1D6504B024
:100E800070BDC04678030020F8030020F0B5474647
:100E9000CE46202380B5494CA9B0E55C0700002D63
:100EA00024D1474C15AE2200210008CAC4313000BD
:100EB00000F028F9C4222368A2580133236093422A
:100EC00000D36FE03D00340021002800FFF72EFF23
:100ED000043428AB04359C42F6D13000FFF7F2FC15
:100EE000380029B00CBC90469946F0BD344B02A89E
:100EF00098461A00414608CAC43100F003F9314D42
:100F000015AE29002A0015315432FF312B6D300007
:100F100000F0F8F8434642461B684146013313602F
:100F2000C4228A58934201D300230B608A222B6D7E
:100F30005200AA5801332B65934201D300232B653D
:100F4000606A01F033F98146A06A01F02FF9011CB3
:100F5000484600F0A3FE8F21C90500F0E7FFFC2101
:100F6000890500F009FD01F001F901AA01903100A5
:100F700002A8FFF7B9FC636AA26A01336362934275
:100F800012D23D0002AC210028000434FFF7CEFE4F
:100F90000435B442F7D12000FFF794FC02A8FFF714
:100FA00091FC9DE725608DE72900D0225031404615
:100FB00001F08CF900222023E254E2E7F80400203B
:100FC00078030020F803002000B595B001A8FFF7D2
:100FD0005DFF01A8FFF778FCFFF7EAFA01A8FFF729
:100FE00071FC15B000BDC046F0B50D4C00262500C3
:100FF000070040C585B0280000F096F8C4343900D9
:1010000001A800F099F801A9200000F06DF829006E
:10101000200000F071F82023024AD65405B0F0BD3C
:1010200078030020F8040020F0B5C646114C0025D6
:101030002600804600B5543684B02565300015344E
:101040000F00FF3400F070F8414601A800F074F87A
:1010500001A9200000F048F83100200000F04CF811
:1010600001212022044B5D629F62995404B004BCAC
:101070009046F0BDF8030020F80400202023014A28
:10108000D05C7047F804002010B5094C201D00F01A
:1010900043F82000C43000F017F8064C200054300C
:1010A00000F03AF820001530FF3000F00DF810BDC8
:1010B00078030020F80300207047C04610B50400F4
:1010C000FFF7AEFB200010BD0A230360024B436014
:1010D000024B83607047C046B9100000BD1000008D
:1010E00001604260836070470B6803604B68436037
:1010F0008B6883600800704710B543680800984704
:1011000010BDC04670B504000800110085681A00C3
:101110002000A847200070BD10B50400C0220021A7
:1011200001F0DDF8200010BD10B5C022002101F053
:10113000D6F810BD7047C04610B50D4A04000A200D
:1011400003E01032506800280AD013788B42F8D19F
:10115000D368010092682000FFF7C2FF200010BD95
:10116000044B054A0A212000FFF7BAFFF6E7C04604
:10117000AC240000911100008D11000010B5FEF7A5
:10118000F7FFFEF7FDFFFFF721F8C0467047C046A6
:1011900010B50400FFF744FB200010BD012A05D064
:1011A000022A01D10B680360002070470160FBE751
:1011B00030B5147800228B5E85B01B040293C823DF
:1011C00005009B0303AA02A901A80393FFF70AFEE7
:1011D000982303AA5B0302A968462404039302949C
:1011E000FFF700FE6A4601A902A8FFF7D1FD02A998
:1011F00003A8FFF7BDFD280003A9FFF701FE2800A3
:1012000005B030BD7047C04610B50A4B84B003939B
:10121000094B6946029304000092FFF71DFB029BF5
:10122000002B03D00322694668469847200004B08B
:1012300010BDC046B11100009D1100007047C046AE
:10124000C82310B5040084B012041B04029202A942
:1012500003AA01A80393FFF7C5FD01A903A8FFF79F
:10126000CFFD03A92000FFF7E3FA200004B010BD72
:10127000012A00D1016000207047C046F0B58BB054
:101280001100050001A8FFF747FA01A903A8FFF71D
:1012900043FAC02309AA5B0303A904A80993FFF733
:1012A00045FA049B1E141B041B0CF2B20593002B81
:1012B0002AD01A4F172A25D00132D4B2A4003C19E3
:1012C000802305AA5B0207A908A80793FFF728FA5D
:1012D000FF2131408900791808AA09A8FFF726FAEA
:1012E000210005AA06A802ACFFF720FA06AA09A960
:1012F0002000FFF78FFA21002800FFF71DFD2800CE
:101300000BB0F0BD3C00DBE7FF210E400349B60007
:1013100002AC89192000FFF7FFF9ECE71C2500005B
:10132000F8B50E4B07001E780024002E14D0C821FB
:10133000C8204900FFF7E2FB411E050089B20020EA
:10134000FFF7DCFB6300DBB25B000134FB18E4B2A7
:101350001D805880B442EADBF8BDC046A9240000D5
:10136000F0B5CE46474680B52D4B8BB009932D4B3B
:101370000C0081460893FFF753FA002327004E46DE
:1013800098464C372588002D45D00222A35E04A93B
:101390001B04049305AA2B0403A80593FFF722FD61
:1013A00003A902A8FFF7B8F902A904A8FFF7B4F946
:1013B000089B002B31D0099B04AA06A905A801931C
:1013C000984705A93000FFF7BDFC638801339BB245
:1013D000AB4211DA638004340436A742D2D1089BB1
:1013E000002B03D006A903220800984748460BB0FB
:1013F0000CBC90469946F0BD4346C8216380490025
:10140000C820FFF77BFB208004340436A742E6D0D7
:101410002588002DB9D10395C2E700F0E9F8C04650
:101420007D12000071120000012A05D0022A01D1AC
:101430000B680360002070470160FBE7F0B514788B
:1014400000228B5E8BB01B040893C82309AA1B04DF
:1014500008A9060007A80993FFF7C4FC2D4DA400B6
:1014600029004031091908A8FFF756F908A909A869
:10147000FFF762FC09AA07A96846FFF797FC6946CF
:1014800001A8FFF775FC01A902A8FFF745F9802321
:1014900009AA5B0302A904A80993FFF747F9049B73
:1014A0001F141B041B0CFAB20593002B29D00F2A22
:1014B00025D00132D4B2A4002C19802305AA5B02E6
:1014C00007A908A80793FFF72BF9FF2139408900E6
:1014D000691808AA09A8FFF729F9210005AA06A892
:1014E00003ACFFF723F906AA09A92000FFF792F938
:1014F00021003000FFF720FC30000BB0F0BD2C00C5
:10150000DBE7FF21394003AC890069182000FFF7B1
:1015100003F9EDE77C2500007047C04610B50A4B83
:1015200084B00393094B6946029304000092FFF7CD
:1015300093F9029B002B03D0032269466846984723
:10154000200004B010BDC0463D1400002914000066
:10155000012A05D0022A01D10B68036000207047E0
:101560000160FBE730B5147800228B5E85B01B0468
:101570000293962305001B0403AA02A901A8039362
:10158000FFF730FC982303AA5B0302A968462404F2
:1015900003930294FFF726FC6A4601A902A8FFF70D
:1015A000F7FB02A903A8FFF7E3FB280003A9FFF755
:1015B00027FC280005B030BD7047C04610B50A4B67
:1015C00084B00393094B6946029304000092FFF72D
:1015D00043F9029B002B03D00322694668469847D3
:1015E000200004B010BDC046651500005115000074
:1015F00010B500F03FFE00000123214A1168194296
:1016000000D113601F4A1168194200D113600123F1
:101610001D4A1168194200D113601C4A1168194211
:1016200000D1136001231A4A1168194200D11360D6
:10163000184A1168194200D113600123164A116833
:10164000194200D11360154A1168194200D1136084
:101650000123134A1168194200D11360114A11681D
:10166000194200D1136001230F4A1168194200D1B9
:1016700013600E4A1168194200D113607047C046CA
:10168000500500204C05002048050020440500209E
:10169000400500203C0500203805002034050020CE
:1016A000300500202C0500202805002024050020FE
:1016B0000123164A1168194200D11360144A1168B7
:1016C000194200D113600123124A1168194200D156
:1016D0001360114A1168194200D1136001230F4AA7
:1016E0001168194200D113600D4A1168194200D1E6
:1016F000136001230B4A1168194200D113600A4A92
:101700001168194200D113607047C046700500206F
:101710006C0500206805002064050020600500209D
:101720005C05002058050020540500200123164ABE
:101730001168194200D11360144A1168194200D18E
:1017400013600123124A1168194200D11360114A33
:101750001168194200D1136001230F4A1168194220
:1017600000D113600D4A1168194200D113600123A2
:101770000B4A1168194200D113600A4A11681942D4
:1017800000D113607047C046900500208C050020F2
:101790008805002084050020800500207C050020AD
:1017A00078050020740500200123214A11681942A0
:1017B00000D113601F4A1168194200D11360012340
:1017C0001D4A1168194200D113601C4A1168194260
:1017D00000D1136001231A4A1168194200D1136025
:1017E000184A1168194200D113600123164A116882
:1017F000194200D11360154A1168194200D11360D3
:101800000123134A1168194200D11360114A11686B
:10181000194200D1136001230F4A1168194200D107
:1018200013600E4A1168194200D113607047C04618
:10183000C0050020BC050020B8050020B40500202C
:10184000B0050020AC050020A8050020A40500205C
:10185000A00500209C05002098050020940500208C
:10186000002243088B4274D303098B425FD3030ADF
:101870008B4244D3030B8B4228D3030C8B420DD3F2
:10188000FF22090212BA030C8B4202D31212090280
:1018900065D0030B8B4219D300E0090AC30B8B42BE
:1018A00001D3CB03C01A5241830B8B4201D38B036C
:1018B000C01A5241430B8B4201D34B03C01A524111
:1018C000030B8B4201D30B03C01A5241C30A8B4254
:1018D00001D3CB02C01A5241830A8B4201D38B023F
:1018E000C01A5241430A8B4201D34B02C01A5241E3
:1018F000030A8B4201D30B02C01A5241CDD2C30955
:101900008B4201D3CB01C01A524183098B4201D3D0
:101910008B01C01A524143098B4201D34B01C01ABB
:10192000524103098B4201D30B01C01A5241C30833
:101930008B4201D3CB00C01A524183088B4201D3A2
:101940008B00C01A524143088B4201D34B00C01A8E
:101950005241411A00D20146524110467047FFE7FA
:1019600001B5002000F006F802BDC0460029F7D0FE
:1019700076E770477047C046F0B5C6464E0247024C
:10198000760A7B0A4400C50FF7004800984600B568
:10199000240E2A00DB00000EC90FBC468D4267D022
:1019A000221A002A00DCA5E000283AD1002F00D13D
:1019B00093E0511E002900D0BCE00124DB1B5A013A
:1019C00046D59B019E09300000F036FC0538864064
:1019D000844200DD9DE0041B320020200134E240FF
:1019E000041BA64033005E1EB341002413435A0774
:1019F00004D00F221A40042A00D004335A0129D5FA
:101A00000134FF2C00D181E02A009B015B0AE4B283
:101A10005B02E405580AD2072043104304BC9046F9
:101A2000F0BDFF2CE3D080213800C9040843844670
:101A30001B2A00DD82E020206146D140821A6046E8
:101A400090400200501E82410A439B1A5A01B8D4AA
:101A50005A07CED1DE082A00FF2C3AD1002E00D141
:101A6000AEE08023DB0333435B025B0AFF24CFE756
:101A7000211A002952DD002831D0FF2CB7D0802058
:101A80003E00C0040643B4461B2900DDAAE0202620
:101A90006046C840711A66468E4031004E1EB14104
:101AA00001435B185901D3D50134FF2C00D187E0E5
:101AB000012278491A405B080B40134397E7002C3A
:101AC00000D0A7E0002B00D0B6E03B1E62D100267C
:101AD000002273025B0AE4B29AE7140087E7002F42
:101AE0004DD0481E002857D1634401245A01AFD578
:101AF0000224DDE7002A24D1621CD2B2012ADEDDF5
:101B0000DE1B720135D5FE1A0D005CE72A000023AA
:101B10007EE73300604A241A134068E7002963D146
:101B2000611CC8B201284EDDFF2949D063445B081F
:101B30000C005CE7FF2A41D00A0079E701229B1ADA
:101B400084E7002C1DD0FF2822D08024E4045242D8
:101B500023431B2A00DD8AE01C002025D440AA1A5A
:101B600093405A1E9341234362460400D31A0D004A
:101B700025E7002E00D026E700220024A9E70C006C
:101B800035E7002B4DD0D243002AEDD0FF28E0D11D
:101B90006346FF240D002AE7FF290FD0010073E7F9
:101BA000002B61D0FF24002F00D120E78022414686
:101BB000D203114202D0164200D13B00FF2416E7A7
:101BC000FF24002324E7002CEAD1002B58D0002F5B
:101BD00000D10CE763445A0100D439E72E4A0C00C7
:101BE000134004E701215CE7002C1ED1002B40D0FC
:101BF000C94300290BD0FF2836D01B2947DC1C0025
:101C00002026CC40711A8B40591E8B4123436344DC
:101C1000040047E7002B18D13B1E2DD00D00FF24F8
:101C2000E5E63B0004000D00E1E6FF281CD080241F
:101C3000E40449422343E0E7002F00D1D7E6DE1B4E
:101C400072011FD5FB1A0D00D1E6FF24002F00D131
:101C5000CDE680224046D2031042AFD01642ADD12D
:101C60003B000D00FF24C2E66346FF24BFE60123CC
:101C70007AE73B000400BAE680260022F603F0E68D
:101C80003B00B4E6331E00D0E2E6002221E7012348
:101C9000BDE7C046FFFFFF7DFFFFFFFBF0B55746E6
:101CA0004E46DE464546E0B544024300C60F83B0CB
:101CB0000F1C640A1B0EB24653D0FF2B27D0802284
:101CC000E400D20414437F225242904698440023F9
:101CD00099469B467D027800FB0F6D0A000E00932B
:101CE00024D0FF2846D080230021ED00DB041D43D3
:101CF0007F384746381A4F460F43BF00B946330076
:101D0000009A874F53404A46BA5801939746002C91
:101D10004ED108239946F7339846FD3B9B467D02FA
:101D20007800FB0F6D0A000E0093DAD1002D26D14A
:101D3000002001213300009A7A4F53404246101A86
:101D40004A460A439200BA581D009746009B2C0051
:101D50009A468B465B46022B31D15346FF21002425
:101D600038E0002C17D1042399460023984601330C
:101D70009B46AFE7FF20002D0BD10221DAE72800B8
:101D800000F05AFA431F9D4076235B42181A002147
:101D9000AFE70321ADE7200000F04EFA431F9C405F
:101DA00076235B421B1A9846002399469B4691E78F
:101DB0000C239946F3339846FC3B9B468AE7032B5A
:101DC00000D1A5E05546012B00D081E00123002180
:101DD00000242B406402C905600ADB07084318434E
:101DE00003B03CBC90469946A246AB46F0BD802469
:101DF0000023E403FF21EDE7FF210024EAE70123AC
:101E0000591A1B2966DD019A134000210024E1E7DD
:101E10008023DB031C4238D01D4251D01C43640296
:101E2000640A3300FF21D5E763016C01A3423BD272
:101E30001B260021013801251F0049005B00002FEF
:101E400001DB9C4201D81B1B2943013E002EF3D12C
:101E50001C00631E9C410C4301007F310029CEDD34
:101E6000630704D00F232340042B00D00434230144
:101E700003D501002C4B80311C40FE290DDD0123D0
:101E8000019AFF2113400024A4E78023DB031C43B5
:101E90006402640A3300FF219CE70123019AA40134
:101EA000640AC9B2134095E71B1B1A260121C2E739
:101EB000009B8B469A4600244CE76302E5D500253B
:101EC0008024E4032C436402640A009BFF2181E721
:101ED0000195C1E723002020CB40411A8C40611EB0
:101EE0008C411C43630704D00F232340042B00D0F4
:101EF0000434630105D50123019A01211340002414
:101F000068E70123019AA401640A1340002161E7F4
:101F10008023DB031C436402640A5346FF2159E714
:101F20000826000048260000FFFFFFF7F8B55746D7
:101F30004E464546DE46E0B54702460088467F0AE3
:101F4000360EC40F002E47D0FF2E24D0FB00802772
:101F5000FF041F43002399469A467F3E43465D0295
:101F60005800DB0F6D0A000E984643D0FF283BD087
:101F7000EB0080250022ED041D437F383618731CCA
:101F800041469B464B46614013430F2B64D875482E
:101F90009B00C3589F46002F42D108239946063B19
:101FA000FF269A46DAE74146022A28D0032A00D1C2
:101FB000CEE0012A00D0ACE0114000200022CCB2DB
:101FC0004002D205400AE407104320433CBC90463F
:101FD0009946A246AB46F8BD002F15D10423994679
:101FE000033B00269A46B9E7FF200222002DC5D008
:101FF0000322C3E7002D19D100200122BEE70124EE
:10200000FF220C400020DBE7380000F015F97626AF
:10201000431F9F4000237642361A99469A469DE711
:102020000C239946093BFF269A4697E7280000F0C3
:1020300003F9431F9D4076235B42181A00229DE757
:1020400080200024C003FF22BAE73D005246ABE7E0
:102050003D0021005246A7E73B0C9C462A04120C87
:102060002B0C1400604665463F043F0C7C43424302
:102070005D437B43270C9B18FF18BA4203D980238A
:102080005B029C46654424043A04240C1219930113
:102090005C1EA3413F0C920E7D191A43AD011543FE
:1020A0002B0104D501235E466A081D40154332000A
:1020B0007F32002A25DD6B0704D00F232B40042B31
:1020C00000D004352B0103D53200274B80321D4050
:1020D000FE2A94DC0124A801400AD2B20C406FE72A
:1020E0008020C003074207D0054205D128434002A3
:1020F000400A4446FF2263E738434002400AFF2279
:102100005EE70124A31A1B2B05DD0C4000220020F2
:1021100056E75E46CBE72A002020DA40C31A9D40EE
:102120002B005D1EAB4113435A0704D00F221A4007
:10213000042A00D004335A0104D5012401220C40A2
:1021400000203DE701249B01580A0C40002237E79C
:1021500080200124C00328434002400A0C40FF2293
:102160002EE7C04688260000FFFFFFF7410243002C
:10217000C20F490A1B0E00207E2B0DDD9D2B0CDCAF
:10218000802000040143952B0ADC9620C31AD94015
:102190004842002A00D108007047034BD018FBE7E3
:1021A000963B9940F4E7C046FFFFFF7F10B5041E41
:1021B00027D000F041F89E231B1A962B0ADC9622AA
:1021C000D21A94406402640ADBB26402DB05600A3E
:1021D000184310BD992B17DC9922D21A002A27DD4B
:1021E00094402200134C1440510704D00F210A40A0
:1021F000042A00D00434620112D4A401640ADBB2C0
:10220000E3E700230024E0E7B9222100D21A91403D
:102210000A00511E8A410521091ACC401443DBE70C
:10222000044B1C409F23A4011B1A640ADBB2CCE7B9
:102230002200D7E7FFFFFFFB1C2101231B0498426C
:1022400001D3000C10391B0A984201D3000A083947
:102250001B09984201D30009043902A2105C4018FE
:102260007047C046040302020101010100000000A2
:102270000000000010B5062000F064F8012000F016
:1022800091F8000070B500260C4D0D4C641BA41095
:10229000A64209D1002600F047FA0A4D0A4C641BF9
:1022A000A410A64205D170BDB300EB589847013683
:1022B000EEE7B300EB5898470136F2E73427000009
:1022C000342700003427000050270000002310B5F9
:1022D0009A4200D110BDCC5CC4540133F8E703002E
:1022E0008218934200D1704719700133F9E770B535
:1022F00004000D001F2904D9162303600120404269
:1023000070BD436C002B04D08A009B181A68002A09
:1023100008D1200000F032F82A000100200000F06F
:102320001BF8EDE70020012AEAD0511C03D1162347
:1023300001302360E4E7002428001C60904720005F
:10234000DEE7000010B5034B01001868FFF7CFFF70
:1023500010BDC04604000020002370B5064C0500E7
:1023600008001100236000F015F8431C03D1236816
:10237000002B00D02B6070BDC405002010B500F00C
:1023800001F810BD58220120014B40421A607047ED
:10239000C405002058220120014B40421A607047BA
:1023A000C4050020FEE7C04605030204010000004A
:1023B00008000000400000000002000000000100D2
:1023C0000000080002000000100000008000000073
:1023D00000040000000002000000400004000000B3
:1023E00020000000000100000008000000000400C0
:1023F0000000800000000001FA0000000000000062
:1024000000000000000000000000000000000000CC
:10241000780084008A008D00910095009A009E004B
:10242000A300A800AE00B400BA00C100C800CF00ED
:10243000D700DF00E800F200FC00070112011E01D6
:102440002B01390147015701670178018B019E017A
:10245000B301C901E101FA01140231024F026E0217
:102460009002B402DA0203032E035B038C03BF0362
:10247000F60330046E04B004000000000000000009
:102480000000000000000000020000000800000042
:1024900010000000120000001400000020000000E6
:1024A0002C0000003200000040130000000000007B
:1024B0000A0000008D1100009111000002000000D0
:1024C00096000000B9150000BD15000003000000D3
:1024D000C8000000191500001D15000004000000D0
:1024E000C80000003D12000041120000050000007D
:1024F0002C01000021130000611300000100000006
:102500003200000005120000091200000000000067
:102510000000000000000000000000003333000055
:10252000008000000080000000800000000001002A
:10253000008000000080000000800000008000009B
:10254000CD4C0000008000000080000000800000F2
:1025500066E60000008000000080000000800000AF
:102560000080000000800000CD4C000000800000D2
:10257000CD4C000000800000008000000000010041
:10258000CDCC000066E6000033B30000CDCC0000E7
:10259000CD4C0000333300009A190000CD0C000030
:1025A0009A190000CD0C00009A190000CD0C000013
:1025B0009A190000CD0C00009A19000000000000DC
:1025C000AB2A00005555000000800000ABAA0000B7
:1025D00055D5000000000000AB2A00005555000052
:1025E00000800000ABAA000055D500005515000082
:1025F00000400000AB6A00005595000000C00000DC
:10260000ABEA000000000000281E0000F81D0000DA
:102610000A1E00004C1D00000A1E0000EE1D0000F6
:102620000A1E00004C1D0000F81D0000F81D0000EF
:10263000EE1D00004C1D0000541D0000541D000044
:10264000541D0000101E0000F81D0000F81D0000C1
:10265000CC1D0000B01E0000CC1D0000EE1D0000CF
:10266000CC1D0000B01E0000F81D0000F81D000089
:10267000EE1D0000B01E0000541D0000541D00009F
:10268000541D0000BA1E000058200000A81F0000C2
:10269000A81F0000A61F00004A2000004A200000DA
:1026A00040200000A61F00004A200000402000003B
:1026B0004A200000A61F000050200000502000000B
:1026C00050200000E020000000000000000000009A
:1026D00000000000000000000000000000000000FA
:1026E00000000000000000000000000000000000EA
:1026F00000000000000000000000000000000000DA
:1027000000000000000000000000000000000000C9
:1027100000000000000000000000000000000000B9
:102720000000000000000000F8B5C046F8BC08BC7E
:102730009E467047CD000000AD0C000089100000DF
:10274000F9150000B11600002D170000A9170000B0
:10275000F8B5C046F8BC08BC9E467047A50000000E
:1027600040420F000800002000000000E8260000A2
:1027700008270000C826000000000000000000003C
:102780000000000000000000000000000000000049
:102790000000000000000000000000000000000039
:1027A0000000000000000000000000000000000029
:1027B0000000000000000000000000000000000019
:0827C000000000000000000011
:00000001FF
